{"abi":[{"type":"constructor","inputs":[{"name":"_vault721","type":"address","internalType":"contract IVault721"}],"stateMutability":"nonpayable"},{"type":"function","name":"COLLATERAL","inputs":[],"outputs":[{"name":"","type":"bytes32","internalType":"bytes32"}],"stateMutability":"view"},{"type":"function","name":"DEBT","inputs":[],"outputs":[{"name":"","type":"bytes32","internalType":"bytes32"}],"stateMutability":"view"},{"type":"function","name":"JSON_CLOSE","inputs":[],"outputs":[{"name":"","type":"string","internalType":"string"}],"stateMutability":"view"},{"type":"function","name":"JSON_DATATYPE","inputs":[],"outputs":[{"name":"","type":"string","internalType":"string"}],"stateMutability":"view"},{"type":"function","name":"JSON_DISPLAYNAME","inputs":[],"outputs":[{"name":"","type":"string","internalType":"string"}],"stateMutability":"view"},{"type":"function","name":"JSON_OPEN","inputs":[],"outputs":[{"name":"","type":"string","internalType":"string"}],"stateMutability":"view"},{"type":"function","name":"getTraitMetadataURI","inputs":[],"outputs":[{"name":"_uri","type":"string","internalType":"string"}],"stateMutability":"view"},{"type":"function","name":"getTraitValue","inputs":[{"name":"_tokenId","type":"uint256","internalType":"uint256"},{"name":"_traitKey","type":"bytes32","internalType":"bytes32"}],"outputs":[{"name":"","type":"bytes32","internalType":"bytes32"}],"stateMutability":"view"},{"type":"function","name":"getTraitValues","inputs":[{"name":"_tokenId","type":"uint256","internalType":"uint256"},{"name":"_traitKeys","type":"bytes32[]","internalType":"bytes32[]"}],"outputs":[{"name":"","type":"bytes32[]","internalType":"bytes32[]"}],"stateMutability":"view"},{"type":"function","name":"setTrait","inputs":[{"name":"","type":"uint256","internalType":"uint256"},{"name":"","type":"bytes32","internalType":"bytes32"},{"name":"","type":"bytes32","internalType":"bytes32"}],"outputs":[],"stateMutability":"nonpayable"},{"type":"function","name":"vault721","inputs":[],"outputs":[{"name":"","type":"address","internalType":"contract IVault721"}],"stateMutability":"view"},{"type":"event","name":"TraitMetadataURIUpdated","inputs":[],"anonymous":false},{"type":"event","name":"TraitUpdated","inputs":[{"name":"traitKey","type":"bytes32","indexed":true,"internalType":"bytes32"},{"name":"tokenId","type":"uint256","indexed":false,"internalType":"uint256"},{"name":"traitValue","type":"bytes32","indexed":false,"internalType":"bytes32"}],"anonymous":false},{"type":"event","name":"TraitUpdatedList","inputs":[{"name":"traitKey","type":"bytes32","indexed":true,"internalType":"bytes32"},{"name":"tokenIds","type":"uint256[]","indexed":false,"internalType":"uint256[]"}],"anonymous":false},{"type":"event","name":"TraitUpdatedListUniformValue","inputs":[{"name":"traitKey","type":"bytes32","indexed":true,"internalType":"bytes32"},{"name":"tokenIds","type":"uint256[]","indexed":false,"internalType":"uint256[]"},{"name":"traitValue","type":"bytes32","indexed":false,"internalType":"bytes32"}],"anonymous":false},{"type":"event","name":"TraitUpdatedRange","inputs":[{"name":"traitKey","type":"bytes32","indexed":true,"internalType":"bytes32"},{"name":"fromTokenId","type":"uint256","indexed":false,"internalType":"uint256"},{"name":"toTokenId","type":"uint256","indexed":false,"internalType":"uint256"}],"anonymous":false},{"type":"event","name":"TraitUpdatedRangeUniformValue","inputs":[{"name":"traitKey","type":"bytes32","indexed":true,"internalType":"bytes32"},{"name":"fromTokenId","type":"uint256","indexed":false,"internalType":"uint256"},{"name":"toTokenId","type":"uint256","indexed":false,"internalType":"uint256"},{"name":"traitValue","type":"bytes32","indexed":false,"internalType":"bytes32"}],"anonymous":false},{"type":"error","name":"Disabled","inputs":[]},{"type":"error","name":"TraitValueUnchanged","inputs":[]},{"type":"error","name":"UnknownTraitKeys","inputs":[]}],"bytecode":{"object":"0x608060405234801561000f575f80fd5b50604051610b9b380380610b9b83398101604081905261002e91610052565b5f80546001600160a01b0319166001600160a01b039290921691909117905561007f565b5f60208284031215610062575f80fd5b81516001600160a01b0381168114610078575f80fd5b9392505050565b610b0f8061008c5f395ff3fe608060405234801561000f575f80fd5b50600436106100a6575f3560e01c8063ab2ccfb51161006e578063ab2ccfb51461016b578063b61c053c14610195578063d3e9056d146101c6578063d7bf34f6146101ce578063de475bf9146101ef578063f80ecba3146101f7575f80fd5b806320c61c89146100aa57806324bbab8b146100e45780632bf453e31461010b5780634bf433a414610120578063a28eec8714610158575b5f80fd5b6100d17fb2527ad5e3edfee867b1b10ab34d699ac8fb9d070b6b55717d7b6bb991eadb5981565b6040519081526020015b60405180910390f35b6100d17f7c8a32867e454951d5e131b20ffa1b900683e04f07ba42e51b6d5116073173b181565b61011e610119366004610677565b610217565b005b61014b6040518060400160405280600c81526020016b3d913a3930b4ba39911d3d9160a11b81525081565b6040516100db91906106c2565b6100d16101663660046106f4565b610230565b5f5461017d906001600160a01b031681565b6040516001600160a01b0390911681526020016100db565b61014b60405180604001604052806012815260200171111d3d913234b9b83630bca730b6b2911d1160711b81525081565b61014b610244565b61014b604051806040016040528060028152602001617d7d60f01b81525081565b61014b610260565b61020a610205366004610714565b61029b565b6040516100db919061078c565b604051633ac4266d60e11b815260040160405180910390fd5b5f61023b838361033f565b90505b92915050565b604051806080016040528060418152602001610a596041913981565b60605f61026b610429565b90506102768161051c565b60405160200161028691906107ea565b60405160208183030381529060405291505090565b6060815f8167ffffffffffffffff8111156102b8576102b861082e565b6040519080825280602002602001820160405280156102e1578160200160208202803683370190505b5090505f5b82811015610335576103108787878481811061030457610304610842565b9050602002013561033f565b82828151811061032257610322610842565b60209081029190910101526001016102e6565b5095945050505050565b5f805460405163ef2986eb60e01b81526004810185905282916001600160a01b03169063ef2986eb9060240160c060405180830381865afa158015610386573d5f803e3d5ffd5b505050506040513d601f19601f820116820180604052508101906103aa9190610871565b90507f7c8a32867e454951d5e131b20ffa1b900683e04f07ba42e51b6d5116073173b183036103de5760200151905061023e565b7fb2527ad5e3edfee867b1b10ab34d699ac8fb9d070b6b55717d7b6bb991eadb5983036104105760400151905061023e565b604051633344f7fd60e01b815260040160405180910390fd5b60606040518060400160405280600c81526020016b3d913a3930b4ba39911d3d9160a11b81525060405180604001604052806012815260200171111d3d913234b9b83630bca730b6b2911d1160711b815250604051806080016040528060418152602001610a596041913960405180604001604052806012815260200171111d3d913234b9b83630bca730b6b2911d1160711b815250604051806080016040528060418152602001610a5960419139604051806040016040528060028152602001617d7d60f01b815250604051602001610508969594939291906108f9565b604051602081830303815290604052905090565b606081515f0361053957505060408051602081019091525f815290565b5f604051806060016040528060408152602001610a9a6040913990505f6003845160026105669190610a0f565b6105709190610a22565b61057b906004610a41565b67ffffffffffffffff8111156105935761059361082e565b6040519080825280601f01601f1916602001820160405280156105bd576020820181803683370190505b509050600182016020820185865187016020810180515f82525b82841015610632576003840193508351603f8160121c168701518653600186019550603f81600c1c168701518653600186019550603f8160061c168701518653600186019550603f81168701518653506001850194506105d7565b905250508551600390066001811461065157600281146106645761066c565b603d6001830353603d600283035361066c565b603d60018303535b509195945050505050565b5f805f60608486031215610689575f80fd5b505081359360208301359350604090920135919050565b5f5b838110156106ba5781810151838201526020016106a2565b50505f910152565b602081525f82518060208401526106e08160408501602087016106a0565b601f01601f19169190910160400192915050565b5f8060408385031215610705575f80fd5b50508035926020909101359150565b5f805f60408486031215610726575f80fd5b83359250602084013567ffffffffffffffff80821115610744575f80fd5b818601915086601f830112610757575f80fd5b813581811115610765575f80fd5b8760208260051b8501011115610779575f80fd5b6020830194508093505050509250925092565b602080825282518282018190525f9190848201906040850190845b818110156107c3578351835292840192918401916001016107a7565b50909695505050505050565b5f81516107e08185602086016106a0565b9290920192915050565b7f646174613a6170706c69636174696f6e2f6a736f6e3b6261736536342c00000081525f825161082181601d8501602087016106a0565b91909101601d0192915050565b634e487b7160e01b5f52604160045260245ffd5b634e487b7160e01b5f52603260045260245ffd5b80516001600160a01b038116811461086c575f80fd5b919050565b5f60c08284031215610881575f80fd5b60405160c0810181811067ffffffffffffffff821117156108b057634e487b7160e01b5f52604160045260245ffd5b806040525082518152602083015160208201526040830151604082015260608301516060820152608083015160808201526108ed60a08401610856565b60a08201529392505050565b5f875161090a818460208c016106a0565b6918dbdb1b185d195c985b60b21b908301908152875161093181600a840160208c016106a0565b6910dbdb1b185d195c985b60b21b600a9290910191820152865161095c816014840160208b016106a0565b6f7265717569726555696e74477465227d60801b60149290910191820152650b089919589d60d21b6024820152855161099c81602a840160208a016106a0565b631119589d60e21b602a929091019182015284516109c181602e8401602089016106a0565b016109e1602e82016f7265717569726555696e744c7465227d60801b9052565b6109ee603e8201856107cf565b9998505050505050505050565b634e487b7160e01b5f52601160045260245ffd5b8082018082111561023e5761023e6109fb565b5f82610a3c57634e487b7160e01b5f52601260045260245ffd5b500490565b808202811582820484141761023e5761023e6109fb56fe222c226461746154797065223a7b2274797065223a2022737472696e67222c226d696e4c656e677468223a317d2c2276616c69646174654f6e53616c65223a20224142434445464748494a4b4c4d4e4f505152535455565758595a6162636465666768696a6b6c6d6e6f707172737475767778797a303132333435363738392b2fa26469706673582212206075b265bf4b52052f6fbdf270c4847730417551e3d174e861ed68fc8737fc4b64736f6c63430008180033","linkReferences":{}},"methodIdentifiers":{"COLLATERAL()":"24bbab8b","DEBT()":"20c61c89","JSON_CLOSE()":"d7bf34f6","JSON_DATATYPE()":"d3e9056d","JSON_DISPLAYNAME()":"b61c053c","JSON_OPEN()":"4bf433a4","getTraitMetadataURI()":"de475bf9","getTraitValue(uint256,bytes32)":"a28eec87","getTraitValues(uint256,bytes32[])":"f80ecba3","setTrait(uint256,bytes32,bytes32)":"2bf453e3","vault721()":"ab2ccfb5"},"id":190}