{"abi":[{"type":"constructor","inputs":[],"stateMutability":"nonpayable"},{"type":"function","name":"addAuthorization","inputs":[{"name":"_account","type":"address","internalType":"address"}],"outputs":[],"stateMutability":"nonpayable"},{"type":"function","name":"approve","inputs":[{"name":"to","type":"address","internalType":"address"},{"name":"tokenId","type":"uint256","internalType":"uint256"}],"outputs":[],"stateMutability":"nonpayable"},{"type":"function","name":"authorizedAccounts","inputs":[{"name":"_account","type":"address","internalType":"address"}],"outputs":[{"name":"_authorized","type":"bool","internalType":"bool"}],"stateMutability":"view"},{"type":"function","name":"authorizedAccounts","inputs":[],"outputs":[{"name":"_accounts","type":"address[]","internalType":"address[]"}],"stateMutability":"view"},{"type":"function","name":"balanceOf","inputs":[{"name":"owner","type":"address","internalType":"address"}],"outputs":[{"name":"","type":"uint256","internalType":"uint256"}],"stateMutability":"view"},{"type":"function","name":"blockDelay","inputs":[],"outputs":[{"name":"","type":"uint256","internalType":"uint256"}],"stateMutability":"view"},{"type":"function","name":"build","inputs":[{"name":"_users","type":"address[]","internalType":"address[]"}],"outputs":[{"name":"_proxies","type":"address[]","internalType":"address payable[]"}],"stateMutability":"nonpayable"},{"type":"function","name":"build","inputs":[],"outputs":[{"name":"_proxy","type":"address","internalType":"address payable"}],"stateMutability":"nonpayable"},{"type":"function","name":"build","inputs":[{"name":"_user","type":"address","internalType":"address"}],"outputs":[{"name":"_proxy","type":"address","internalType":"address payable"}],"stateMutability":"nonpayable"},{"type":"function","name":"contractMetaData","inputs":[],"outputs":[{"name":"","type":"string","internalType":"string"}],"stateMutability":"view"},{"type":"function","name":"contractURI","inputs":[],"outputs":[{"name":"uri","type":"string","internalType":"string"}],"stateMutability":"view"},{"type":"function","name":"getApproved","inputs":[{"name":"tokenId","type":"uint256","internalType":"uint256"}],"outputs":[{"name":"","type":"address","internalType":"address"}],"stateMutability":"view"},{"type":"function","name":"getIsAllowlisted","inputs":[{"name":"_user","type":"address","internalType":"address"}],"outputs":[{"name":"","type":"bool","internalType":"bool"}],"stateMutability":"view"},{"type":"function","name":"getNfvState","inputs":[{"name":"_vaultId","type":"uint256","internalType":"uint256"}],"outputs":[{"name":"","type":"tuple","internalType":"struct IVault721.NFVState","components":[{"name":"cType","type":"bytes32","internalType":"bytes32"},{"name":"collateral","type":"uint256","internalType":"uint256"},{"name":"debt","type":"uint256","internalType":"uint256"},{"name":"lastBlockNumber","type":"uint256","internalType":"uint256"},{"name":"lastBlockTimestamp","type":"uint256","internalType":"uint256"},{"name":"safeHandler","type":"address","internalType":"address"}]}],"stateMutability":"view"},{"type":"function","name":"getProxy","inputs":[{"name":"_user","type":"address","internalType":"address"}],"outputs":[{"name":"_proxy","type":"address","internalType":"address"}],"stateMutability":"view"},{"type":"function","name":"initialize","inputs":[{"name":"_timelockController","type":"address","internalType":"address"},{"name":"_blockDelay","type":"uint256","internalType":"uint256"},{"name":"_timeDelay","type":"uint256","internalType":"uint256"}],"outputs":[],"stateMutability":"nonpayable"},{"type":"function","name":"initializeManager","inputs":[],"outputs":[],"stateMutability":"nonpayable"},{"type":"function","name":"initializeRenderer","inputs":[],"outputs":[],"stateMutability":"nonpayable"},{"type":"function","name":"isApprovedForAll","inputs":[{"name":"owner","type":"address","internalType":"address"},{"name":"operator","type":"address","internalType":"address"}],"outputs":[{"name":"","type":"bool","internalType":"bool"}],"stateMutability":"view"},{"type":"function","name":"mint","inputs":[{"name":"_proxy","type":"address","internalType":"address"},{"name":"_safeId","type":"uint256","internalType":"uint256"}],"outputs":[],"stateMutability":"nonpayable"},{"type":"function","name":"modifyParameters","inputs":[{"name":"_param","type":"bytes32","internalType":"bytes32"},{"name":"_data","type":"bytes","internalType":"bytes"}],"outputs":[],"stateMutability":"nonpayable"},{"type":"function","name":"name","inputs":[],"outputs":[{"name":"","type":"string","internalType":"string"}],"stateMutability":"view"},{"type":"function","name":"nftRenderer","inputs":[],"outputs":[{"name":"","type":"address","internalType":"contract NFTRenderer"}],"stateMutability":"view"},{"type":"function","name":"ownerOf","inputs":[{"name":"tokenId","type":"uint256","internalType":"uint256"}],"outputs":[{"name":"","type":"address","internalType":"address"}],"stateMutability":"view"},{"type":"function","name":"removeAuthorization","inputs":[{"name":"_account","type":"address","internalType":"address"}],"outputs":[],"stateMutability":"nonpayable"},{"type":"function","name":"safeManager","inputs":[],"outputs":[{"name":"","type":"address","internalType":"contract IODSafeManager"}],"stateMutability":"view"},{"type":"function","name":"safeTransferFrom","inputs":[{"name":"from","type":"address","internalType":"address"},{"name":"to","type":"address","internalType":"address"},{"name":"tokenId","type":"uint256","internalType":"uint256"}],"outputs":[],"stateMutability":"nonpayable"},{"type":"function","name":"safeTransferFrom","inputs":[{"name":"from","type":"address","internalType":"address"},{"name":"to","type":"address","internalType":"address"},{"name":"tokenId","type":"uint256","internalType":"uint256"},{"name":"data","type":"bytes","internalType":"bytes"}],"outputs":[],"stateMutability":"nonpayable"},{"type":"function","name":"setApprovalForAll","inputs":[{"name":"operator","type":"address","internalType":"address"},{"name":"approved","type":"bool","internalType":"bool"}],"outputs":[],"stateMutability":"nonpayable"},{"type":"function","name":"supportsInterface","inputs":[{"name":"interfaceId","type":"bytes4","internalType":"bytes4"}],"outputs":[{"name":"","type":"bool","internalType":"bool"}],"stateMutability":"view"},{"type":"function","name":"symbol","inputs":[],"outputs":[{"name":"","type":"string","internalType":"string"}],"stateMutability":"view"},{"type":"function","name":"timeDelay","inputs":[],"outputs":[{"name":"","type":"uint256","internalType":"uint256"}],"stateMutability":"view"},{"type":"function","name":"timelockController","inputs":[],"outputs":[{"name":"","type":"address","internalType":"address"}],"stateMutability":"view"},{"type":"function","name":"tokenByIndex","inputs":[{"name":"index","type":"uint256","internalType":"uint256"}],"outputs":[{"name":"","type":"uint256","internalType":"uint256"}],"stateMutability":"view"},{"type":"function","name":"tokenOfOwnerByIndex","inputs":[{"name":"owner","type":"address","internalType":"address"},{"name":"index","type":"uint256","internalType":"uint256"}],"outputs":[{"name":"","type":"uint256","internalType":"uint256"}],"stateMutability":"view"},{"type":"function","name":"tokenURI","inputs":[{"name":"_safeId","type":"uint256","internalType":"uint256"}],"outputs":[{"name":"uri","type":"string","internalType":"string"}],"stateMutability":"view"},{"type":"function","name":"totalSupply","inputs":[],"outputs":[{"name":"","type":"uint256","internalType":"uint256"}],"stateMutability":"view"},{"type":"function","name":"transferFrom","inputs":[{"name":"from","type":"address","internalType":"address"},{"name":"to","type":"address","internalType":"address"},{"name":"tokenId","type":"uint256","internalType":"uint256"}],"outputs":[],"stateMutability":"nonpayable"},{"type":"function","name":"updateNfvState","inputs":[{"name":"_vaultId","type":"uint256","internalType":"uint256"}],"outputs":[],"stateMutability":"nonpayable"},{"type":"event","name":"AddAuthorization","inputs":[{"name":"_account","type":"address","indexed":false,"internalType":"address"}],"anonymous":false},{"type":"event","name":"Approval","inputs":[{"name":"owner","type":"address","indexed":true,"internalType":"address"},{"name":"approved","type":"address","indexed":true,"internalType":"address"},{"name":"tokenId","type":"uint256","indexed":true,"internalType":"uint256"}],"anonymous":false},{"type":"event","name":"ApprovalForAll","inputs":[{"name":"owner","type":"address","indexed":true,"internalType":"address"},{"name":"operator","type":"address","indexed":true,"internalType":"address"},{"name":"approved","type":"bool","indexed":false,"internalType":"bool"}],"anonymous":false},{"type":"event","name":"CreateProxy","inputs":[{"name":"_user","type":"address","indexed":true,"internalType":"address"},{"name":"_proxy","type":"address","indexed":true,"internalType":"address"}],"anonymous":false},{"type":"event","name":"Initialized","inputs":[{"name":"version","type":"uint8","indexed":false,"internalType":"uint8"}],"anonymous":false},{"type":"event","name":"ModifyParameters","inputs":[{"name":"_param","type":"bytes32","indexed":true,"internalType":"bytes32"},{"name":"_cType","type":"bytes32","indexed":true,"internalType":"bytes32"},{"name":"_data","type":"bytes","indexed":false,"internalType":"bytes"}],"anonymous":false},{"type":"event","name":"NFVStateUpdated","inputs":[{"name":"_vaultId","type":"uint256","indexed":false,"internalType":"uint256"}],"anonymous":false},{"type":"event","name":"RemoveAuthorization","inputs":[{"name":"_account","type":"address","indexed":false,"internalType":"address"}],"anonymous":false},{"type":"event","name":"Transfer","inputs":[{"name":"from","type":"address","indexed":true,"internalType":"address"},{"name":"to","type":"address","indexed":true,"internalType":"address"},{"name":"tokenId","type":"uint256","indexed":true,"internalType":"uint256"}],"anonymous":false},{"type":"error","name":"AlreadyAuthorized","inputs":[]},{"type":"error","name":"BlockDelayNotOver","inputs":[]},{"type":"error","name":"NotAuthorized","inputs":[]},{"type":"error","name":"NotSafeManager","inputs":[]},{"type":"error","name":"NotWallet","inputs":[]},{"type":"error","name":"NullAddress","inputs":[]},{"type":"error","name":"NullAddress","inputs":[]},{"type":"error","name":"ProxyAlreadyExist","inputs":[]},{"type":"error","name":"StateViolation","inputs":[]},{"type":"error","name":"TimeDelayNotOver","inputs":[]},{"type":"error","name":"Unauthorized","inputs":[]},{"type":"error","name":"UnrecognizedCType","inputs":[]},{"type":"error","name":"UnrecognizedParam","inputs":[]},{"type":"error","name":"ZeroAddress","inputs":[]}],"bytecode":{"object":"0x6101e060405261012760808181529062003de460a03960d090620000249082620001e4565b5034801562000031575f80fd5b50336200003e8162000045565b50620002b0565b6001600160a01b0381166200006d5760405163e99d5ac560e01b815260040160405180910390fd5b6200007a60c982620000d8565b15620000bf576040516001600160a01b03821681527f599a298163e1678bb1c676052a8930bf0b8a1261ed6e01b8a2391e55f70001029060200160405180910390a150565b604051633013e93f60e11b815260040160405180910390fd5b5f620000ee836001600160a01b038416620000f7565b90505b92915050565b5f8181526001830160205260408120546200013e57508154600181810184555f848152602080822090930184905584548482528286019093526040902091909155620000f1565b505f620000f1565b634e487b7160e01b5f52604160045260245ffd5b600181811c908216806200016f57607f821691505b6020821081036200018e57634e487b7160e01b5f52602260045260245ffd5b50919050565b601f821115620001df57805f5260205f20601f840160051c81016020851015620001bb5750805b601f840160051c820191505b81811015620001dc575f8155600101620001c7565b50505b505050565b81516001600160401b0381111562000200576200020062000146565b62000218816200021184546200015a565b8462000194565b602080601f8311600181146200024e575f8415620002365750858301515b5f19600386901b1c1916600185901b178555620002a8565b5f85815260208120601f198616915b828110156200027e578886015182559484019460019091019084016200025d565b50858210156200029c57878501515f19600388901b60f8161c191681555b505060018460011b0185555b505050505050565b613b2680620002be5f395ff3fe608060405234801562000010575f80fd5b506004361062000264575f3560e01c80636352211e116200014f578063b88d4fde11620000c3578063e8a3d4851162000083578063e8a3d4851462000573578063e985e9c5146200057d578063ef2986eb14620005bb578063f3388e751462000623578063f3701da21462000637575f80fd5b8063b88d4fde146200051a578063c87b56dd1462000531578063c9dec3611462000548578063d98f60881462000552578063da8a4bb8146200055c575f80fd5b806395d89b41116200010f57806395d89b4114620004a05780639923cc9714620004aa578063a22cb46514620004c1578063a88432c514620004d8578063b7fba4d314620004ec575f80fd5b80636352211e146200043a57806370a0823114620004515780637a1ac61e14620004685780638e1a55fc146200047f57806394f3f81d1462000489575f80fd5b806323b872dd11620001e757806336fd0e2b11620001a757806336fd0e2b14620003d757806340c10f1914620003e157806342842e0e14620003f85780634f6ccce7146200040f57806357c904411462000426575f80fd5b806323b872dd146200037157806324ba588414620003885780632e391876146200039f5780632f745c5914620003a957806335b2815314620003c0575f80fd5b8063095ea7b31162000233578063095ea7b314620003035780630b959718146200031c5780631111dfad146200032657806318160ddd14620003305780631c3864551462000343575f80fd5b806301ffc9a714620002685780630560ea23146200029457806306fdde0314620002ba578063081812fc14620002d3575b5f80fd5b6200027f6200027936600462002a36565b6200064e565b60405190151581526020015b60405180910390f35b620002ab620002a536600462002ab1565b6200067b565b6040516200028b919062002b6b565b620002c46200077d565b6040516200028b919062002c0a565b620002ea620002e436600462002c1e565b62000815565b6040516001600160a01b0390911681526020016200028b565b6200031a6200031436600462002c36565b6200083c565b005b620002c46200095f565b6200031a620009f3565b6099545b6040519081526020016200028b565b6200027f6200035436600462002c63565b6001600160a01b03165f90815260d4602052604090205460ff1690565b6200031a6200038236600462002c81565b62000a19565b6200027f6200039936600462002c63565b62000a51565b620002ab62000a5d565b62000334620003ba36600462002c36565b62000a70565b6200031a620003d136600462002c63565b62000b08565b6200031a62000b3e565b6200031a620003f236600462002c36565b62000b63565b6200031a6200040936600462002c81565b62000c16565b620003346200042036600462002c1e565b62000c32565b60cc54620002ea906001600160a01b031681565b620002ea6200044b36600462002c1e565b62000cc8565b620003346200046236600462002c63565b62000d29565b6200031a6200047936600462002cc4565b62000daf565b620002ea62000f88565b6200031a6200049a36600462002c63565b62000fbd565b620002c462000ff0565b6200031a620004bb36600462002c1e565b62001001565b6200031a620004d236600462002d07565b6200112b565b60cd54620002ea906001600160a01b031681565b620002ea620004fd36600462002c63565b6001600160a01b039081165f90815260d260205260409020541690565b6200031a6200052b36600462002dc5565b6200113c565b620002c46200054236600462002c1e565b62001175565b6200033460cf5481565b6200033460ce5481565b6200031a6200056d36600462002e35565b620011f2565b620002c462001263565b6200027f6200058e36600462002e7d565b6001600160a01b039182165f908152606a6020908152604080832093909416825291909152205460ff1690565b620005d2620005cc36600462002c1e565b6200128d565b6040516200028b9190815181526020808301519082015260408083015190820152606080830151908201526080808301519082015260a0918201516001600160a01b03169181019190915260c00190565b60cb54620002ea906001600160a01b031681565b620002ea6200064836600462002c63565b6200132e565b5f6001600160e01b0319821663780e9d6360e01b1480620006755750620006758262001363565b92915050565b80516060908067ffffffffffffffff8111156200069c576200069c62002a54565b604051908082528060200260200182016040528015620006c6578160200160208202803683370190505b5091505f5b818110156200077657620006fb848281518110620006ed57620006ed62002eae565b6020026020010151620013b5565b62000719576040516311cabc2160e21b815260040160405180910390fd5b6200074084828151811062000732576200073262002eae565b602002602001015162001465565b83828151811062000755576200075562002eae565b6001600160a01b0390921660209283029190910190910152600101620006cb565b5050919050565b6060606580546200078e9062002ec2565b80601f0160208091040260200160405190810160405280929190818152602001828054620007bc9062002ec2565b80156200080b5780601f10620007e1576101008083540402835291602001916200080b565b820191905f5260205f20905b815481529060010190602001808311620007ed57829003601f168201915b5050505050905090565b5f620008218262001550565b505f908152606960205260409020546001600160a01b031690565b5f620008488262000cc8565b9050806001600160a01b0316836001600160a01b031603620008bb5760405162461bcd60e51b815260206004820152602160248201527f4552433732313a20617070726f76616c20746f2063757272656e74206f776e656044820152603960f91b60648201526084015b60405180910390fd5b336001600160a01b0382161480620008da5750620008da81336200058e565b6200094e5760405162461bcd60e51b815260206004820152603d60248201527f4552433732313a20617070726f76652063616c6c6572206973206e6f7420746f60448201527f6b656e206f776e6572206f7220617070726f76656420666f7220616c6c0000006064820152608401620008b2565b6200095a8383620015a4565b505050565b60d080546200096e9062002ec2565b80601f01602080910402602001604051908101604052809291908181526020018280546200099c9062002ec2565b8015620009eb5780601f10620009c157610100808354040283529160200191620009eb565b820191905f5260205f20905b815481529060010190602001808311620009cd57829003601f168201915b505050505081565b60cd546001600160a01b031662000a175760cd80546001600160a01b031916331790555b565b62000a25338262001613565b62000a445760405162461bcd60e51b8152600401620008b29062002efc565b6200095a83838362001696565b5f6200067582620016af565b606062000a6b60c9620016bd565b905090565b5f62000a7c8362000d29565b821062000ae05760405162461bcd60e51b815260206004820152602b60248201527f455243373231456e756d657261626c653a206f776e657220696e646578206f7560448201526a74206f6620626f756e647360a81b6064820152608401620008b2565b506001600160a01b03919091165f908152609760209081526040808320938352929052205490565b62000b1333620016af565b62000b30576040516282b42960e81b815260040160405180910390fd5b62000b3b81620016d2565b50565b60cc546001600160a01b031662000a175760cc80546001600160a01b03191633179055565b60cc546001600160a01b0316331462000b8f5760405163c47305a360e01b815260040160405180910390fd5b6001600160a01b038281165f90815260d160205260409020541662000bf05760405162461bcd60e51b8152602060048201526016602482015275563732313a206e6f6e2d6e61746976652070726f787960501b6044820152606401620008b2565b6001600160a01b038083165f90815260d16020526040902054166200095a818362001766565b6200095a83838360405180602001604052805f8152506200113c565b5f62000c3d60995490565b821062000ca25760405162461bcd60e51b815260206004820152602c60248201527f455243373231456e756d657261626c653a20676c6f62616c20696e646578206f60448201526b7574206f6620626f756e647360a01b6064820152608401620008b2565b6099828154811062000cb85762000cb862002eae565b905f5260205f2001549050919050565b5f818152606760205260408120546001600160a01b031680620006755760405162461bcd60e51b8152602060048201526018602482015277115490cdcc8c4e881a5b9d985b1a59081d1bdad95b88125160421b6044820152606401620008b2565b5f6001600160a01b03821662000d945760405162461bcd60e51b815260206004820152602960248201527f4552433732313a2061646472657373207a65726f206973206e6f7420612076616044820152683634b21037bbb732b960b91b6064820152608401620008b2565b506001600160a01b03165f9081526068602052604090205490565b5f54610100900460ff161580801562000dce57505f54600160ff909116105b8062000de95750303b15801562000de957505f5460ff166001145b62000e4e5760405162461bcd60e51b815260206004820152602e60248201527f496e697469616c697a61626c653a20636f6e747261637420697320616c72656160448201526d191e481a5b9a5d1a585b1a5e995960921b6064820152608401620008b2565b5f805460ff19166001179055801562000e70575f805461ff0019166101001790555b836001600160a01b03811662000e995760405163d92e233d60e01b815260040160405180910390fd5b60cb80546001600160a01b0319166001600160a01b03871690811790915562000ec290620016af565b62000ede5760cb5462000ede906001600160a01b0316620016d2565b62000f316040518060400160405280601181526020017013dc195b88111bdb1b185c8815985d5b1d607a1b8152506040518060400160405280600681526020016527a216a7232b60d11b81525062001781565b5060ce83905560cf829055801562000f82575f805461ff0019169055604051600181527f7f26b83ff96e1f2b6a682f133852f6798a09c465da95921460cefb38474024989060200160405180910390a15b50505050565b5f62000f9433620013b5565b62000fb2576040516311cabc2160e21b815260040160405180910390fd5b62000a6b3362001465565b62000fc833620016af565b62000fe5576040516282b42960e81b815260040160405180910390fd5b62000b3b81620017b6565b6060606680546200078e9062002ec2565b60cc546001600160a01b031633146200102d5760405163c47305a360e01b815260040160405180910390fd5b5f805f806200103c856200181c565b93509350935093506040518060c00160405280858152602001848152602001838152602001438152602001428152602001826001600160a01b031681525060d35f8781526020019081526020015f205f820151815f01556020820151816001015560408201518160020155606082015181600301556080820151816004015560a0820151816005015f6101000a8154816001600160a01b0302191690836001600160a01b031602179055509050507f0257553d5849faf62849afb0bb8709c321e6ca8b19a1d9c3ab8a979fe05dac8c856040516200111c91815260200190565b60405180910390a15050505050565b62001138338383620019c2565b5050565b62001148338362001613565b620011675760405162461bcd60e51b8152600401620008b29062002efc565b62000f828484848462001a91565b6060620011828262001550565b60cd546040516330c8446360e21b8152600481018490526001600160a01b039091169063c321118c906024015f60405180830381865afa158015620011c9573d5f803e3d5ffd5b505050506040513d5f823e601f3d908101601f1916820160405262000675919081019062002f49565b620011fd33620016af565b6200121a576040516282b42960e81b815260040160405180910390fd5b5f801b827fe436a8be7dc6aab90b400800ecc86e46fb600f2e18989b5d0389840fdabbf2ed836040516200124f919062002c0a565b60405180910390a362001138828262001acb565b606060d060405160200162001279919062002fc4565b604051602081830303815290604052905090565b620012cd6040518060c001604052805f80191681526020015f81526020015f81526020015f81526020015f81526020015f6001600160a01b031681525090565b505f90815260d36020908152604091829020825160c0810184528154815260018201549281019290925260028101549282019290925260038201546060820152600482015460808201526005909101546001600160a01b031660a082015290565b5f6200133a82620013b5565b62001358576040516311cabc2160e21b815260040160405180910390fd5b620006758262001465565b5f6001600160e01b031982166380ac58cd60e01b14806200139457506001600160e01b03198216635b5e139f60e01b145b806200067557506301ffc9a760e01b6001600160e01b031983161462000675565b6001600160a01b038181165f90815260d2602052604081205490911615806200067557506001600160a01b038083165f81815260d2602090815260409182902054825163117803e360e01b815292519394169263117803e39260048082019392918290030181865afa1580156200142e573d5f803e3d5ffd5b505050506040513d601f19601f820116820180604052508101906200145491906200306f565b6001600160a01b0316141592915050565b6001600160a01b038181165f90815260d1602052604081205490911615620014a057604051632972501560e21b815260040160405180910390fd5b81604051620014af9062002a12565b6001600160a01b039091168152602001604051809103905ff080158015620014d9573d5f803e3d5ffd5b506001600160a01b038082165f81815260d16020908152604080832080549589166001600160a01b0319968716811790915580845260d290925280832080549095168417909455925193945090927f35a3d8029a6816bbc1a1c8a0f3a821ed0728b86f2d3bf5f5a9fd90fcf94ddb269190a3919050565b6200155b8162001d74565b62000b3b5760405162461bcd60e51b8152602060048201526018602482015277115490cdcc8c4e881a5b9d985b1a59081d1bdad95b88125160421b6044820152606401620008b2565b5f81815260696020526040902080546001600160a01b0319166001600160a01b0384169081179091558190620015da8262000cc8565b6001600160a01b03167f8c5be1e5ebec7d5bd14f71427d1e84f3dd0314c0f7b2291e5b200ac8c7c3b92560405160405180910390a45050565b5f80620016208362000cc8565b9050806001600160a01b0316846001600160a01b031614806200166757506001600160a01b038082165f908152606a602090815260408083209388168352929052205460ff165b806200168e5750836001600160a01b0316620016838462000815565b6001600160a01b0316145b949350505050565b620016a2338262001d93565b6200095a83838362001ec4565b5f6200067560c9836200204b565b60605f620016cb836200206d565b9392505050565b6001600160a01b038116620016fa5760405163e99d5ac560e01b815260040160405180910390fd5b6200170760c982620020c8565b156200174d576040516001600160a01b03821681527f599a298163e1678bb1c676052a8930bf0b8a1261ed6e01b8a2391e55f7000102906020015b60405180910390a150565b604051633013e93f60e11b815260040160405180910390fd5b62001138828260405180602001604052805f815250620020de565b5f54610100900460ff16620017aa5760405162461bcd60e51b8152600401620008b2906200308d565b62001138828262002117565b620017c360c9826200215d565b1562001803576040516001600160a01b03821681527f8834a87e641e9716be4f34527af5d23e11624f1ddeefede6ad75a9acfc31b9039060200162001742565b60405163ea8e4eb560e01b815260040160405180910390fd5b60cc546040516335c9c6e960e01b8152600481018390525f9182918291829182916001600160a01b0316906335c9c6e990602401608060405180830381865afa1580156200186c573d5f803e3d5ffd5b505050506040513d601f19601f82011682018060405250810190620018929190620030d8565b60408101519091506001600160a01b038116620018c25760405163d92e233d60e01b815260040160405180910390fd5b606082015160cc54604080516367aea31360e01b815290515f926001600160a01b0316916367aea3139160048083019260209291908290030181865afa1580156200190f573d5f803e3d5ffd5b505050506040513d601f19601f820116820180604052508101906200193591906200306f565b604051630f50894160e21b8152600481018490526001600160a01b0385811660248301529190911690633d422504906044016040805180830381865afa15801562001982573d5f803e3d5ffd5b505050506040513d601f19601f82011682018060405250810190620019a891906200316d565b8051602090910151929a9099509197509195509350505050565b816001600160a01b0316836001600160a01b03160362001a255760405162461bcd60e51b815260206004820152601960248201527f4552433732313a20617070726f766520746f2063616c6c6572000000000000006044820152606401620008b2565b6001600160a01b038381165f818152606a6020908152604080832094871680845294825291829020805460ff191686151590811790915591519182527f17307eab39ab6107e8899845ad3d59bd9653f200f220920489ca2b5937696c31910160405180910390a3505050565b62001a9e84848462001696565b62001aac8484848462002173565b62000f825760405162461bcd60e51b8152600401620008b290620031be565b5f62001ad8826020015190565b9050826a39b0b332a6b0b730b3b2b960a91b0362001b295762001b04816001600160a01b03166200227d565b60cc80546001600160a01b0319166001600160a01b0392909216919091179055505050565b82713a34b6b2b637b1b5a1b7b73a3937b63632b960711b0362001b935760cb546001600160a01b039081169062001b6d9062001b679084166200227d565b620016d2565b60cb80546001600160a01b0319166001600160a01b03841617905562000f8281620017b6565b826a37333a2932b73232b932b960a91b0362001be25762001bbd816001600160a01b03166200227d565b60cd80546001600160a01b0319166001600160a01b0392909216919091179055505050565b8269626c6f636b44656c617960b01b0362001c0257506020015160ce5550565b826874696d6544656c617960b81b0362001c2157506020015160cf5550565b82703ab83230ba32a7232a2932b73232b932b960791b0362001cc2575f805f808580602001905181019062001c57919062003210565b935093509350935062001cb962001c77856001600160a01b03166200227d565b62001c8b856001600160a01b03166200227d565b62001c9f856001600160a01b03166200227d565b62001cb3856001600160a01b03166200227d565b620022aa565b50505050505050565b826e1d5c19185d19505b1b1bdddb1a5cdd608a1b0362001d20575f808380602001905181019062001cf4919062003275565b9150915062001d0c826001600160a01b03166200227d565b5062001d1982826200234f565b5050505050565b826a636f6e747261637455524960a81b0362001d5b578180602001905181019062001d4c919062002f49565b60d09062000f829082620032ef565b60405163013a5fe960e71b815260040160405180910390fd5b5f8181526067602052604081205481906001600160a01b031662001454565b5f8062001da0836200181c565b505f86815260d36020908152604091829020825160c0810184528154815260018201549281018390526002820154938101939093526003810154606084015260048101546080840152600501546001600160a01b031660a0830152929550909350915083108062001e145750806040015182115b1562001e3357604051632c4a4d0160e21b815260040160405180910390fd5b6001600160a01b0385165f90815260d4602052604090205460ff161562001e8f5760ce54816060015162001e689190620033d0565b43101562001e8957604051633883fa0760e11b815260040160405180910390fd5b62001d19565b60cf54816080015162001ea39190620033d0565b42101562001d19576040516330c1d7cd60e11b815260040160405180910390fd5b826001600160a01b031662001ed98262000cc8565b6001600160a01b03161462001f025760405162461bcd60e51b8152600401620008b290620033e6565b6001600160a01b03821662001f665760405162461bcd60e51b8152602060048201526024808201527f4552433732313a207472616e7366657220746f20746865207a65726f206164646044820152637265737360e01b6064820152608401620008b2565b62001f758383836001620023a3565b826001600160a01b031662001f8a8262000cc8565b6001600160a01b03161462001fb35760405162461bcd60e51b8152600401620008b290620033e6565b5f81815260696020908152604080832080546001600160a01b03199081169091556001600160a01b038781168086526068855283862080545f1901905590871680865283862080546001019055868652606790945282852080549092168417909155905184937fddf252ad1be2c89b69c2b068fc378daa952ba7f163c4a11628f55a4df523b3ef91a46200095a8383836001620024d8565b6001600160a01b0381165f9081526001830160205260408120541515620016cb565b6060815f01805480602002602001604051908101604052809291908181526020018280548015620020bc57602002820191905f5260205f20905b815481526020019060010190808311620020a7575b50505050509050919050565b5f620016cb836001600160a01b038416620025ab565b620020ea8383620025fa565b620020f85f84848462002173565b6200095a5760405162461bcd60e51b8152600401620008b290620031be565b5f54610100900460ff16620021405760405162461bcd60e51b8152600401620008b2906200308d565b60656200214e8382620032ef565b5060666200095a8282620032ef565b5f620016cb836001600160a01b0384166200278a565b5f6001600160a01b0384163b156200227257604051630a85bd0160e11b81526001600160a01b0385169063150b7a0290620021b99033908990889088906004016200342b565b6020604051808303815f875af1925050508015620021f6575060408051601f3d908101601f19168201909252620021f39181019062003469565b60015b62002257573d80801562002226576040519150601f19603f3d011682016040523d82523d5f602084013e6200222b565b606091505b5080515f036200224f5760405162461bcd60e51b8152600401620008b290620031be565b805181602001fd5b6001600160e01b031916630a85bd0160e11b1490506200168e565b506001949350505050565b5f6001600160a01b038216620022a65760405163e99d5ac560e01b815260040160405180910390fd5b5090565b60cc546001600160a01b0316620022c1816200227d565b5060cd80546001600160a01b0319166001600160a01b0387811691821790925560405163516601f560e11b815283831660048201528683166024820152858316604482015291841660648301529063a2cc03ea906084015b5f604051808303815f87803b15801562002331575f80fd5b505af115801562002344573d5f803e3d5ffd5b505050505050505050565b816001600160a01b038116620023785760405163d92e233d60e01b815260040160405180910390fd5b506001600160a01b03919091165f90815260d460205260409020805460ff1916911515919091179055565b6001811115620024145760405162461bcd60e51b815260206004820152603560248201527f455243373231456e756d657261626c653a20636f6e7365637574697665207472604482015274185b9cd9995c9cc81b9bdd081cdd5c1c1bdc9d1959605a1b6064820152608401620008b2565b816001600160a01b03851662002472576200246c81609980545f838152609a60205260408120829055600182018355919091527f72a152ddfb8e864297c917af52ea6c1c68aead0fee1a62673fcc7e0c94979d000155565b62002498565b836001600160a01b0316856001600160a01b03161462002498576200249885826200287e565b6001600160a01b038416620024b25762001e89816200291c565b846001600160a01b0316846001600160a01b03161462001d195762001d198482620029ce565b6001600160a01b038316620025205760405162461bcd60e51b815260206004820152600d60248201526c2b1b99189d10373790313ab93760991b6044820152606401620008b2565b6001600160a01b0384161562000f82575f6200253c84620013b5565b1562002555576200254d8462001465565b905062002571565b506001600160a01b038084165f90815260d26020526040902054165b60cc5460405163405edb5960e11b8152600481018590526001600160a01b038381166024830152909116906380bdb6b29060440162002319565b5f818152600183016020526040812054620025f257508154600181810184555f84815260208082209093018490558454848252828601909352604090209190915562000675565b505f62000675565b6001600160a01b038216620026525760405162461bcd60e51b815260206004820181905260248201527f4552433732313a206d696e7420746f20746865207a65726f20616464726573736044820152606401620008b2565b6200265d8162001d74565b15620026ac5760405162461bcd60e51b815260206004820152601c60248201527f4552433732313a20746f6b656e20616c7265616479206d696e746564000000006044820152606401620008b2565b620026bb5f83836001620023a3565b620026c68162001d74565b15620027155760405162461bcd60e51b815260206004820152601c60248201527f4552433732313a20746f6b656e20616c7265616479206d696e746564000000006044820152606401620008b2565b6001600160a01b0382165f81815260686020908152604080832080546001019055848352606790915280822080546001600160a01b0319168417905551839291907fddf252ad1be2c89b69c2b068fc378daa952ba7f163c4a11628f55a4df523b3ef908290a4620011385f83836001620024d8565b5f818152600183016020526040812054801562002874575f620027af60018362003487565b85549091505f90620027c49060019062003487565b90508181146200282a575f865f018281548110620027e657620027e662002eae565b905f5260205f200154905080875f01848154811062002809576200280962002eae565b5f918252602080832090910192909255918252600188019052604090208390555b85548690806200283e576200283e6200349d565b600190038181905f5260205f20015f90559055856001015f8681526020019081526020015f205f90556001935050505062000675565b5f91505062000675565b5f60016200288c8462000d29565b62002898919062003487565b5f83815260986020526040902054909150808214620028ea576001600160a01b0384165f9081526097602090815260408083208584528252808320548484528184208190558352609890915290208190555b505f9182526098602090815260408084208490556001600160a01b039094168352609781528383209183525290812055565b6099545f906200292f9060019062003487565b5f838152609a60205260408120546099805493945090928490811062002959576200295962002eae565b905f5260205f200154905080609983815481106200297b576200297b62002eae565b5f918252602080832090910192909255828152609a90915260408082208490558582528120556099805480620029b557620029b56200349d565b600190038181905f5260205f20015f9055905550505050565b5f620029da8362000d29565b6001600160a01b039093165f908152609760209081526040808320868452825280832085905593825260989052919091209190915550565b61063f80620034b283390190565b6001600160e01b03198116811462000b3b575f80fd5b5f6020828403121562002a47575f80fd5b8135620016cb8162002a20565b634e487b7160e01b5f52604160045260245ffd5b604051601f8201601f1916810167ffffffffffffffff8111828210171562002a945762002a9462002a54565b604052919050565b6001600160a01b038116811462000b3b575f80fd5b5f602080838503121562002ac3575f80fd5b823567ffffffffffffffff8082111562002adb575f80fd5b818501915085601f83011262002aef575f80fd5b81358181111562002b045762002b0462002a54565b8060051b915062002b1784830162002a68565b818152918301840191848101908884111562002b31575f80fd5b938501935b8385101562002b5f578435925062002b4e8362002a9c565b828252938501939085019062002b36565b98975050505050505050565b602080825282518282018190525f9190848201906040850190845b8181101562002bad5783516001600160a01b03168352928401929184019160010162002b86565b50909695505050505050565b5f5b8381101562002bd557818101518382015260200162002bbb565b50505f910152565b5f815180845262002bf681602086016020860162002bb9565b601f01601f19169290920160200192915050565b602081525f620016cb602083018462002bdd565b5f6020828403121562002c2f575f80fd5b5035919050565b5f806040838503121562002c48575f80fd5b823562002c558162002a9c565b946020939093013593505050565b5f6020828403121562002c74575f80fd5b8135620016cb8162002a9c565b5f805f6060848603121562002c94575f80fd5b833562002ca18162002a9c565b9250602084013562002cb38162002a9c565b929592945050506040919091013590565b5f805f6060848603121562002cd7575f80fd5b833562002ce48162002a9c565b95602085013595506040909401359392505050565b801515811462000b3b575f80fd5b5f806040838503121562002d19575f80fd5b823562002d268162002a9c565b9150602083013562002d388162002cf9565b809150509250929050565b5f67ffffffffffffffff82111562002d5f5762002d5f62002a54565b50601f01601f191660200190565b5f82601f83011262002d7d575f80fd5b813562002d9462002d8e8262002d43565b62002a68565b81815284602083860101111562002da9575f80fd5b816020850160208301375f918101602001919091529392505050565b5f805f806080858703121562002dd9575f80fd5b843562002de68162002a9c565b9350602085013562002df88162002a9c565b925060408501359150606085013567ffffffffffffffff81111562002e1b575f80fd5b62002e298782880162002d6d565b91505092959194509250565b5f806040838503121562002e47575f80fd5b82359150602083013567ffffffffffffffff81111562002e65575f80fd5b62002e738582860162002d6d565b9150509250929050565b5f806040838503121562002e8f575f80fd5b823562002e9c8162002a9c565b9150602083013562002d388162002a9c565b634e487b7160e01b5f52603260045260245ffd5b600181811c9082168062002ed757607f821691505b60208210810362002ef657634e487b7160e01b5f52602260045260245ffd5b50919050565b6020808252602d908201527f4552433732313a2063616c6c6572206973206e6f7420746f6b656e206f776e6560408201526c1c881bdc88185c1c1c9bdd9959609a1b606082015260800190565b5f6020828403121562002f5a575f80fd5b815167ffffffffffffffff81111562002f71575f80fd5b8201601f8101841362002f82575f80fd5b805162002f9362002d8e8262002d43565b81815285602083850101111562002fa8575f80fd5b62002fbb82602083016020860162002bb9565b95945050505050565b7f646174613a6170706c69636174696f6e2f6a736f6e3b757466382c000000000081525f601b5f845462002ff88162002ec2565b600182811680156200301357600181146200302f5762003062565b60ff198416601b890152601b8315158402890101945062003062565b885f526020805f205f5b85811015620030565781548b82018a015290840190820162003039565b505050601b8389010194505b5092979650505050505050565b5f6020828403121562003080575f80fd5b8151620016cb8162002a9c565b6020808252602b908201527f496e697469616c697a61626c653a20636f6e7472616374206973206e6f74206960408201526a6e697469616c697a696e6760a81b606082015260800190565b5f60808284031215620030e9575f80fd5b6040516080810181811067ffffffffffffffff821117156200310f576200310f62002a54565b60405282516bffffffffffffffffffffffff811681146200312e575f80fd5b81526020830151620031408162002a9c565b60208201526040830151620031558162002a9c565b60408201526060928301519281019290925250919050565b5f604082840312156200317e575f80fd5b6040516040810181811067ffffffffffffffff82111715620031a457620031a462002a54565b604052825181526020928301519281019290925250919050565b60208082526032908201527f4552433732313a207472616e7366657220746f206e6f6e20455243373231526560408201527131b2b4bb32b91034b6b83632b6b2b73a32b960711b606082015260800190565b5f805f806080858703121562003224575f80fd5b8451620032318162002a9c565b6020860151909450620032448162002a9c565b6040860151909350620032578162002a9c565b60608601519092506200326a8162002a9c565b939692955090935050565b5f806040838503121562003287575f80fd5b8251620032948162002a9c565b602084015190925062002d388162002cf9565b601f8211156200095a57805f5260205f20601f840160051c81016020851015620032ce5750805b601f840160051c820191505b8181101562001d19575f8155600101620032da565b815167ffffffffffffffff8111156200330c576200330c62002a54565b62003324816200331d845462002ec2565b84620032a7565b602080601f8311600181146200335a575f8415620033425750858301515b5f19600386901b1c1916600185901b178555620033b4565b5f85815260208120601f198616915b828110156200338a5788860151825594840194600190910190840162003369565b5085821015620033a857878501515f19600388901b60f8161c191681555b505060018460011b0185555b505050505050565b634e487b7160e01b5f52601160045260245ffd5b80820180821115620006755762000675620033bc565b60208082526025908201527f4552433732313a207472616e736665722066726f6d20696e636f72726563742060408201526437bbb732b960d91b606082015260800190565b6001600160a01b03858116825284166020820152604081018390526080606082018190525f906200345f9083018462002bdd565b9695505050505050565b5f602082840312156200347a575f80fd5b8151620016cb8162002a20565b81810381811115620006755762000675620033bc565b634e487b7160e01b5f52603160045260245ffdfe60a060405234801561000f575f80fd5b5060405161063f38038061063f83398101604081905261002e9161003f565b6001600160a01b031660805261006c565b5f6020828403121561004f575f80fd5b81516001600160a01b0381168114610065575f80fd5b9392505050565b6080516105af6100905f395f818160480152818160c7015261012c01526105af5ff3fe608060405260043610610033575f3560e01c8063117803e3146100375780631b6bb66f146100875780631cff79cd146100a7575b5f80fd5b348015610042575f80fd5b5061006a7f000000000000000000000000000000000000000000000000000000000000000081565b6040516001600160a01b0390911681526020015b60405180910390f35b61009a61009536600461040f565b6100ba565b60405161007e9190610525565b61009a6100b536600461040f565b61011f565b6060336001600160a01b037f0000000000000000000000000000000000000000000000000000000000000000161461010557604051635fc483c560e01b815260040160405180910390fd5b6101186001600160a01b038416836101a4565b9392505050565b6060336001600160a01b037f0000000000000000000000000000000000000000000000000000000000000000161461016a57604051635fc483c560e01b815260040160405180910390fd5b6001600160a01b03831661019157604051638de42c8360e01b815260040160405180910390fd5b6101186001600160a01b038416836101e7565b606061011883835f6040518060400160405280601e81526020017f416464726573733a206c6f772d6c6576656c2063616c6c206661696c6564000081525061020c565b60606101188383604051806060016040528060278152602001610553602791396102ea565b6060824710156102725760405162461bcd60e51b815260206004820152602660248201527f416464726573733a20696e73756666696369656e742062616c616e636520666f6044820152651c8818d85b1b60d21b60648201526084015b60405180910390fd5b5f80866001600160a01b0316858760405161028d9190610537565b5f6040518083038185875af1925050503d805f81146102c7576040519150601f19603f3d011682016040523d82523d5f602084013e6102cc565b606091505b50915091506102dd8783838761035e565b925050505b949350505050565b60605f80856001600160a01b0316856040516103069190610537565b5f60405180830381855af49150503d805f811461033e576040519150601f19603f3d011682016040523d82523d5f602084013e610343565b606091505b50915091506103548683838761035e565b9695505050505050565b606083156103cc5782515f036103c5576001600160a01b0385163b6103c55760405162461bcd60e51b815260206004820152601d60248201527f416464726573733a2063616c6c20746f206e6f6e2d636f6e74726163740000006044820152606401610269565b50816102e2565b6102e283838151156103e15781518083602001fd5b8060405162461bcd60e51b81526004016102699190610525565b634e487b7160e01b5f52604160045260245ffd5b5f8060408385031215610420575f80fd5b82356001600160a01b0381168114610436575f80fd5b9150602083013567ffffffffffffffff80821115610452575f80fd5b818501915085601f830112610465575f80fd5b813581811115610477576104776103fb565b604051601f8201601f19908116603f0116810190838211818310171561049f5761049f6103fb565b816040528281528860208487010111156104b7575f80fd5b826020860160208301375f6020848301015280955050505050509250929050565b5f5b838110156104f25781810151838201526020016104da565b50505f910152565b5f81518084526105118160208601602086016104d8565b601f01601f19169290920160200192915050565b602081525f61011860208301846104fa565b5f82516105488184602087016104d8565b919091019291505056fe416464726573733a206c6f772d6c6576656c2064656c65676174652063616c6c206661696c6564a2646970667358221220a65731193d56803871b5b70ec958047a94a7bc29721603554c316e8c33fc048064736f6c63430008180033a26469706673582212207a2041a9871ae2b05e93ad9bc90e5dbd0b99282b7c5c45f931d224dd7920c73464736f6c634300081800337b226e616d65223a20224f70656e20446f6c6c6172205661756c7473222c226465736372697074696f6e223a20224f70656e20446f6c6c6172206973206120737461626c65636f696e2070726f746f636f6c206275696c74206f6e20417262697472756d2064657369676e656420746f2068656c7020796f75206561726e207969656c6420616e64206c6576657261676520796f75722061737365747320776974682073616665747920616e6420707265646963746162696c6974792e222c22696d616765223a202268747470733a2f2f6170702e6f70656e646f6c6c61722e636f6d2f636f6c6c656374696f6e496d6167652e706e67222c2265787465726e616c5f6c696e6b223a202268747470733a2f2f6170702e6f70656e646f6c6c61722e636f6d227d","linkReferences":{}},"methodIdentifiers":{"addAuthorization(address)":"35b28153","approve(address,uint256)":"095ea7b3","authorizedAccounts()":"2e391876","authorizedAccounts(address)":"24ba5884","balanceOf(address)":"70a08231","blockDelay()":"d98f6088","build()":"8e1a55fc","build(address)":"f3701da2","build(address[])":"0560ea23","contractMetaData()":"0b959718","contractURI()":"e8a3d485","getApproved(uint256)":"081812fc","getIsAllowlisted(address)":"1c386455","getNfvState(uint256)":"ef2986eb","getProxy(address)":"b7fba4d3","initialize(address,uint256,uint256)":"7a1ac61e","initializeManager()":"36fd0e2b","initializeRenderer()":"1111dfad","isApprovedForAll(address,address)":"e985e9c5","mint(address,uint256)":"40c10f19","modifyParameters(bytes32,bytes)":"da8a4bb8","name()":"06fdde03","nftRenderer()":"a88432c5","ownerOf(uint256)":"6352211e","removeAuthorization(address)":"94f3f81d","safeManager()":"57c90441","safeTransferFrom(address,address,uint256)":"42842e0e","safeTransferFrom(address,address,uint256,bytes)":"b88d4fde","setApprovalForAll(address,bool)":"a22cb465","supportsInterface(bytes4)":"01ffc9a7","symbol()":"95d89b41","timeDelay()":"c9dec361","timelockController()":"f3388e75","tokenByIndex(uint256)":"4f6ccce7","tokenOfOwnerByIndex(address,uint256)":"2f745c59","tokenURI(uint256)":"c87b56dd","totalSupply()":"18160ddd","transferFrom(address,address,uint256)":"23b872dd","updateNfvState(uint256)":"9923cc97"},"id":213}